:10000000E04F0020A19F010001CA011001CA0110A8
:1000100001CA011001CA011001CA011001CA011070
:1000200001CA011001CA011001CA011001CA011060
:1000300001CA011001CA01103FCA0110EFF310807C
:1000400072B67047EFF3108062B670470138FDD189
:1000500070477047006800280CBF012000207047DF
:10006000006870470068704738B504460D4603F0D5
:10007000E0F900212960616869606168002914BFA6
:100080000D6025606560FFE7BDE8324003F0D3B93D
:100090000B684A68002B0CBF42605A604A680968C6
:1000A000002A0CBF0160116070470268531C036096
:1000B00011707047C2175040801AB0FA80F10AD010
:1000C0008840D1F19D01D20742EAC151020672F186
:1000D000004241EB102070474FF0807C1CEB400F3A
:1000E00094BF1CEB410F05E040EA010C1CEB0C0F28
:0C00F00001D28142704718BF884270475F
:100100003C0000000000000000000000340100007E
:1001100000000000000000000100000000000000DE
:1001200000000000000000000000000001000000CE
:100130000000000008000000000000003400000083
:100140000000000000000000680100000000000046
:10015000000000000100000000000000010000009D
:100160000000000000000000080000000000000087
:1001700030000000000000000000000098010000B6
:10018000040000000000000001000000FFFFFFFF6E
:10019000FF00000001000000080000000000000057
:1001A0002C0000000000000000000000C40100005E
:1001B000040000000000000001000000FFFFFFFF3E
:1001C000FFFFFFFF080000000000000034050000F2
:1001D000E401000099A1011095A70110A5C201102A
:1001E00009B2011045B80110000000000000000035
:1001F0002D000000280000000000000000000000AA
:10020000140200000000000000000000FFFFFFFFDC
:1002100000000000080000000000000030050000A1
:100220003002000069C201106DC101101FC201102F
:1002300095BA011000000000000000002F0000002F
:10024000300500005402000075C20110A9B601106B
:100250009DBF011049B60110000000000000000021
:10026000300000002400000000000000000000003A
:1002700080020000000000000000000000000000FC
:100280000800000000000000240000000000000042
:1002900000000000A40200000000000000000000B8
:1002A0000000000008000000000000002400000022
:1002B0000000000000000000C80200000000000074
:1002C0000100000000000000080000000000000025
:1002D00000000000FC0D00200400000000000000F1
:1002E000000000002000000070010000300000004D
:1002F0001C020000040E00200400000000000000AA
:10030000000000000C000000300400001800000095
:10031000400200000C0E002004000000000000005D
:100320000000000024000000480400001800000045
:1003300000000000140E0020040000000000000077
:100340000000000010000000A00100002C000000D0
:10035000CC0100001C0E0020040000000000000082
:1003600000000000200000006402000024000000E3
:10037000FFFFFFFF240E002004000000000000002B
:100380000000000028000000880200002400000097
:10039000FFFFFFFF2C0E0020040000000000000003
:1003A00000000000580000003C0100003400000084
:1003B000FFFFFFFF340E00200400000000000000DB
:1003C00000000000100000006004000018000000A1
:1003D000FFFFFFFF3C0E00200400000000000000B3
:1003E000000000001C000000AC020000240000001F
:1003F000FFFFFFFF440E002004000000000000008B
:100400000000000038000000F40100002800000097
:10041000FFFFFFFF4C0E0020040000000000000062
:100420000000000054000000000100003C0000003B
:100430001800000000000000000000004004000060
:10044000080000000000000018000000000000008C
:100450000000000058040000080000000000000038
:100460001800000000000000000000007004000000
:10047000080000000000000002000000FC9F0100D6
:030480002B00004E
:100484000100000000000E0000000F003200000018
:1004940001000000AC0D002000020000B99C010026
:1004A40001CA011000000000000000000800000064
:1004B40000002200180C002001000000C40D0020E0
:1004C400080000000000000005000000C405002032
:1004D400000000000000000001000000800C00206B
:1004E4000600000006000000FC03002000000000DD
:0C04F400000000000001000000000000FB
:100502002900010025002F0030002D0001000152BA
:10051200000104000000E09F010000000000000054
:100522000000000001000000030087C4011038052C
:10053200000038050000000000008000000080007C
:10054200000000000000C40D002079870100200097
:100552000000B89F01000C9D01000DC301100D3376
:1005620000000F33000099C801109BC80110000061
:10057200000082040000E89A0100009B0100D09A6A
:100582000100080009000100000001120001000042
:100592000000000000000000000000000000D33155
:1005A20000002F320000F7300000593200003F31C6
:1005B2000000153100007131000083320000F18625
:1005C20001007F88010083880100080000002400E8
:1005D20000001800000028000000200000003C007D
:1005E20000000C00000034000000DFF800F0C1C180
:1005F2000110DFF800F041AC0110DFF800F009B79C
:100602000110DFF800F0A9C50110DFF800F0CDA05D
:100612000110DFF800F049C10110DFF800F019C243
:100622000110DFF800F03DC10110DFF800F029AF42
:100632000110DFF800F061C20110DFF800F0E9C23A
:100642000110DFF800F0E1C20110DFF800F021B381
:100652000110DFF800F0CDC10110DFF800F085B025
:100662000110DFF800F099B20110DFF800F0DDB2FE
:100672000110DFF800F0F9BF0110DFF8940B016000
:100682000220FFF7E2BC2DE9F84304466568D4F87E
:10069200089005F1A806706958B3FFF7BAFF8046C3
:1006A200DFF8347B0020F8600421D9F80000FFF75E
:1006B200E4FF316801E08169716100226B682046C4
:1006C2009847022001F0DDF97069B1698842F2D1E0
:1006D2000020287230607061B0613860DFF8381B2A
:1006E2000860204600F079FD4046BDE8F243FFF77E
:1006F20094BFBDE8F183F8B584684668DFF81C0B47
:100702000568E90606F1A40720D5DFF8100B00689A
:10071200C10605D4DFF80C1B0A681378D90615D573
:10072200290713D5000705D4DFF8F80A01680A780B
:1007320010070BD5B86948B1DFF8ECCA0FF62431BF
:10074200BCF800000023CC22FFF75BFF386801F001
:10075200B3FEDFF8800A0021C16001600020DFF8EB
:10076200B41A0860606801F0B3F906F11000FFF7EF
:1007720060FF06F12C00FFF760FF06F16000FFF753
:1007820060FF307818B906F17C00FFF75AFF06F1D6
:10079200C80001F079FBFFF73CFF002186F8DC106E
:1007A200FFF73BFF00F0A8F980B1E9050ED500F094
:1007B2005AFB02D400F05CFB08D5206800F04DFB28
:1007C20025680FF6043300F090F9A847F1BD6FF0E9
:1007D200010070472DE9F84FDFF8501ADFF8504A50
:1007E20084B086680A684568306853689847074647
:1007F2000120E061FF20002F1CBF297AFF2940F071
:100802004681297A05F1A80739B101290CD00229BC
:1008120000F0C180FF2940F0388105F12C0005B0BD
:10082200BDE8F04FFFF711BFB868DFF8041ADFF830
:10083200F029401EB860D1F800B0D2F80080DFF88D
:10084200DC19DFF8D429D1F80090D2F800A058D0F2
:10085200DFF8E4090188ADF80C10080018D05FEA4F
:100862008A5115D55FEA895002D400F03AF90FD5C2
:100872003968DFF8C4E9087CDEF800C00FF66423AB
:10088200029078680178DFF89C09028800F03DF94F
:1008920078680178A1607868411C7960B96802299A
:1008A20018D23869B0B90021297205213068FFF7E2
:1008B200E4FEBDF80C00002813D05FEA8A511AD575
:1008C2005FEA895002D400F00CF914D531680FF6B2
:1008D2005823CFE030680121FFF7CFFEBDF80C00AE
:1008E200002800F0FB805FEA8A5104D55FEA895054
:1008F20003D400F0F6F840F1F18031680FF674236A
:10090200B8E03869002831D0022129723868017CA8
:10091200490041F00101216039693068022912D38E
:100922000B21FFF7AAFE00F0EBF871D05FEA8A51C3
:1009320071D55FEA895002D400F0D3F86BD53168E3
:100942000FF66C2396E00321FFF797FE00F0D8F82C
:100952005ED05FEA8A515ED55FEA895002D400F028
:10096200C0F858D531680FF69C2383E02872042121
:100972003068FFF782FE00F0C3F849D05FEA8A517F
:1009820049D55FEA895002D400F0ABF843D531680B
:100992000FF6CC236EE0A068F9680870DFF89408BF
:1009A200DFF88018D0F800B0DFF87408D1F80080C2
:1009B200D0F80090DFF86418DFF87C08D1F800A0C6
:1009C2000488BCB15FEA8A5014D55FEA895002D428
:1009D20000F087F80ED500210291F868DFF85CE894
:1009E2000178DFF84008DEF800C002880FF6BC2369
:1009F20000F08BF8F868411CF9603969491E3961C9
:100A0200306825D0022911D30921FFF736FE002CC8
:100A120064D05FEA8A5061D55FEA895002D400F05F
:100A220060F85BD531680FF6B82323E00121FFF7A8
:100A320024FE002C52D05FEA8A504FD55FEA8950DB
:100A420002D400F04EF849D531680FF6C82311E000
:100A520029720421FFF711FE002C3FD05FEA8A5071
:100A62003CD55FEA895002D400F03BF836D53168B4
:100A72000FF6D82300F0E1F8DFF8AC07DFF8C04743
:100A8200028825685846A84728E0287226E028727E
:100A9200F80604D505F12C00FFF7D7FD03E0306816
:100AA2000421FFF7EAFD00F027F8B8B100F0D0F911
:100AB20014D500F0D8F902D400F0DAF90ED50020EE
:100AC200029001973068DFF85C17DFF86C470A88FC
:100AD20025680FF6C02300F008F8A84705B0BDE866
:100AE200F08FB8F800008105704700904FF48071D4
:100AF200DFF8400700687047DFF83C170888704746
:100B0200DFF8341708880028704701915846316889
:100B120000914FF4007160472DE9FF410646DFF86E
:100B220014077568048804B3DFF8F01608688205B4
:100B32001BD5DFF8E8160868820505D4DFF8E4164D
:100B420008680288910510D5DFF8DC763A88B0682B
:100B5200DFF8E07601680FF66C2300F06EF8386873
:100B6200DFF8DC76D7F80080C047287A6B6805F199
:100B7200A807421E92413968D20F304698477869D9
:100B8200B96988421DD1002038607861022000F0E6
:100B920078FF002C48D000F03DFA45D500F031FA3C
:100BA20002D400F032FA3FD500F040F8DFF8904668
:100BB2001288006825680FF62C2300F03EF8A8473B
:100BC20032E080697861FCB1DFF850160A6893055B
:100BD2001AD5DFF848160A68930505D4DFF84416DB
:100BE2000A68138899050FD500210190029100F03F
:100BF2001DF8DFF8444612880068D4F800C00FF6EA
:100C0200142300F01AF8E0477969304600F036F90B
:100C120010F1010F08D10320287204B005F12C0055
:100C2200BDE8F041FFF711BDBDE8FF81B068DFF814
:100C3200F4250168DFF8FC05704700914FF400715C
:100C420070474068002180F8DC1070472DE9F847B2
:100C520081468FB0D9F80450D9F808608A46FFF768
:100C6200D8FC95F8DC10012902D1FFF7D6FC9DE0F3
:100C7200012185F8DC10FFF7D0FCDAF80C00D9F876
:100C82000810D9F80480002807BF0C7D4F7D047836
:100C92004778FF2C18BFFF2F6FD0DFF8A40540EA7A
:100CA20004010091384369464860FE20886008F1DB
:100CB200980001F099FB0028C8F8A4005DD00D222D
:100CC200214601F04FFCD8F8A4000E22394601F06B
:100CD20049FC9AF8000028700823DAF804006860DA
:100CE20030229AF80800E860002103A8FFF799FC77
:100CF200CDF820900021307BDFF84C2500910B903D
:100D020003ABB16805F11000FFF78FFC082328221E
:100D1200002103A8FFF79DFCCDF81C900023306949
:100D2200DFF82815099003AA05F12C00FFF795FCBE
:100D320008232422002103A8FFF757FC01208DF885
:100D4200240003AA012105F16000FFF756FCDFF839
:100D5200D004DFF8C814D0F80080DFF8BC240C6897
:100D62001768287820BB03AA002105F17C00FFF751
:100D720044FC0FF21D40686036E0FFF7BDFEA8B1EB
:100D820000F066F812D500F06EF802D400F070F8A8
:100D92000CD5306800F061F80FF6B80300904FF4FC
:100DA2008071DFF88C0425680068A84700204CE0B9
:100DB200F80619D5E00603D498F80000C10613D549
:100DC200380711D5200703D498F8000001070BD586
:100DD200686848B9DFF850040FF2884100880023A0
:100DE20040F2A922FFF70DFC002105F1BC00297297
:100DF20001604160706800F0FFFE484600F0EDF9C6
:100E02004B460FF24D42042105F1C80000F029FEC5
:100E1200FFF772FEC0B1F90516D5E00503D4B8F8A4
:100E22000000C10510D5DFF8FC0331680288DFF845
:100E32000054DFF808642868D6F800A00FF65803BB
:100E420000914FF48071D047484610B0BDE8F0875A
:100E5200DFF8C8231168C8057047DFF8C813DFF848
:100E6200DC430A887047DFF8B4030168CA0570479B
:100E7200DFF8B00301680A88D00570472DE9FE4308
:100E8200D0F80480856808F1A806316008687060AF
:100E92004868B0608868F060C8683061DFF898031D
:100EA20004882CB3DFF874130868C20520D5DFF874
:100EB2006C130868C20505D4DFF868130868028855
:100EC200D10515D500200290DFF868733068DFF88D
:100ED20068E3017CDFF850030FF2D87302880191B6
:100EE200296800914FF480713868DEF80070B847C5
:100EF200B068DFF83873002841D03168087C4000C0
:100F02003860012188F80810F4B100F083F81BD58D
:100F120000F077F802D400F078F815D53068DFF8E1
:100F22001083017CDFF814C30FF2B873DCF8009071
:100F3200029170680178BB480288D8F800000191DC
:100F42002968FFF77AFEC8477068411C7160007813
:100F5200B860786840061ED428680321FFF78DFB2D
:100F6200002C4BD000F056F848D500F04AF802D4D5
:100F720000F04BF842D528680FF2AC7334E03068C9
:100F8200017C490041F001013960022088F8080023
:100F92007868400602D54FF0FF3030E031692868AA
:100FA200022911D20321FFF768FB002C26D000F0A2
:100FB20031F823D500F025F802D400F026F81DD52B
:100FC20028680FF2A8730FE00B21FFF756FBACB1B4
:100FD20000F020F812D500F014F802D400F015F851
:100FE2000CD528680FF2D07300908E499148934C2B
:100FF2000A88006825684FF40071A8470020BDE800
:10100200FE83864801688A057047854801680A8818
:1010120090057047814801688A0570472DE9FE4FA7
:1010220004466668A06801900F464FF00008796890
:10103200002904BFF86800280ED03178012910D1A8
:10104200FFF7E7FA06F1BC02116831B153689F61FC
:101052005760FFF7E2FA01208FE017605760FFF751
:10106200DCFA022000F0A4FD4FF0FF3106F160002F
:10107200FFF7CBFA01988068FFF7F3FA394620466A
:10108200FFF7FCFE044601988068FFF7EEFA30781D
:10109200002861D16A4966480F686149D0F800B0FA
:1010A2000D685E485D49D0F80090D1F800A014F1B7
:1010B200010F17D1604A108870B15FEACA510BD58F
:1010C2005FEAC95002D42888C10505D500F057F857
:1010D2000FF22C7300F058F803203072022000F057
:1010E200D0FC45E05448048874B15FEACA500BD57D
:1010F2005FEAC95002D42888C10505D500F03FF83F
:101102000FF2287300F040F8514906F17C00FFF716
:101112007CFA74B15FEACA500BD55FEAC95002D4B7
:101122002888C10505D500F02AF80FF22C7300F0CB
:101132002BF8307AE0B9CCB15FEACA5016D55FEA33
:10114200C95002D42888C10510D500F018F80FF252
:10115200287300F019F809E014F1010F06D10320F9
:10116200307206F12C00FFF770FA01E04FF001082F
:1011720006F16000FFF73DFA4046BDE8FE8F019898
:10118200294A016812887047009158464FF48071CD
:101192003847F8B5284904460888A8B1FFF758FE31
:1011A20012D5FFF760FE02D4FFF762FE0CD5A068ED
:1011B2001D4D2A8801681E4E214D30682F680FF29E
:1011C200D0630091FFF7E2FF6068BDE8F2407C3037
:1011D200FFF70FBA0000042800403EB54468856856
:1011E2006846FFF746FA0FF2D461E06851F8202012
:1011F20002B101220D4B1C68286801992568D2B200
:10120200A8470348044A0121816111600160C1605D
:1012120037BD0428004010040542400500003C058B
:1012220000004405000084050000AC010010002805
:10123200004028A00100E22E000024A0010020A00E
:10124200010000200084D70700001B0B0000A086CD
:10125200010080B5042804BF1046FFF7BEFF00203E
:1012620002BD433A5C55736572735C4B6566616E91
:101272005C446F776E6C6F6164735C365469534380
:10128200482D546573746265642D6D61696E202802
:1012920031295C3654695343482D54657374626531
:1012A200642D6D61696E5C736F757263655C436F0B
:1012B2006D706F6E656E74735C68616C5C4932430D
:1012C2004343323658582E6300004932433A204F86
:1012D200626A65637420636C6F736564203078257D
:1012E20078004932433A282570292049535220492F
:1012F20032434343323658585F57524954455F4D43
:101302004F44453A204461746120746F20777269BA
:1013120074653A20307825783B20546F20736C61D5
:1013220076653A203078257800004932433A2825FC
:101332007029204953522049324343433236585888
:101342005F57524954455F4D4F44453A2041434B04
:101352002072656365697665643B205772697469BA
:101362006E6720772F2053544F502062697400001B
:1013720000004932433A2825702920495352204916
:1013820032434343323658585F57524954455F4DB2
:101392004F44453A2041434B207265636569766547
:1013A200643B2057726974696E670000000049321D
:1013B200433A282570292049535220493243434356
:1013C200323658585F57524954455F4D4F44453A5B
:1013D200202D3E204932434343323658585F52450E
:1013E20041445F4D4F44453B2052656164696E67DD
:1013F20020772F205245535441525420616E64206D
:1014020041434B0000004932433A282570292049C4
:101412005352204932434343323658585F57524958
:1014220054455F4D4F44453A202D3E2049324343B7
:1014320043323658585F524541445F4D4F44453B15
:101442002052656164696E6720772F20524553549C
:1014520041525420616E64204E41434B0000493298
:10146200433A2825702920495352204932434343A5
:10147200323658585F57524954455F4D4F44453AAA
:10148200202D3E204932434343323658585F494467
:101492004C455F4D4F44453B2053656E64696E6712
:1014A2002053544F5020626974004932433A282530
:1014B2007029204953522049324343433236585807
:1014C2005F524541445F4D4F44453A205265616445
:1014D200206461746120627974653A2030782578DD
:1014E20000004932433A28257029204953522049A5
:1014F20032434343323658585F524541445F4D4F61
:1015020044453A2052656164696E6720772F204115
:10151200434B000000004932433A282570292049F4
:101522005352204932434343323658585F52454161
:10153200445F4D4F44453A2052656164696E6720AD
:10154200772F204E41434B0000004932433A282571
:101552007029204953522049324343433236585866
:101562005F524541445F4D4F44453A202D3E20494C
:1015720032434343323658585F49444C455F4D4FDE
:1015820044453B2053656E64696E672053544F5047
:101592002062697400004932433A282570292049A3
:1015A20053522049324320427573206661756C7430
:1015B2002028537461747573205265673A2030781D
:1015C2002578290000004932433A2825702920490C
:1015D2005352205472616E7366657220436F6D7050
:1015E2006C65746500004932433A28257029204908
:1015F2005352204E6F206F74686572204932432027
:101602007472616E73616374696F6E20696E2071AA
:101612007565756500004932433A282570292049CD
:101622005352205072696D696E67206E657874201E
:10163200493243207472616E73616374696F6E2004
:10164200282570292066726F6D2071756575650099
:1016520000004932433A2050696E20616C6C6F631E
:101662006174696F6E206661696C65642C206F70AD
:10167200656E20646964206E6F74207375636365A0
:101682006564202862617365416464723A3078252A
:101692007829000000004932433A204F626A6563AC
:1016A2007420637265617465642030782578000067
:1016B20000004932433A282570292053746172741C
:1016C200696E67207472616E73616374696F6E20F4
:1016D200746F20736C6176653A203078257800004B
:1016E20000004932433A28257029204932434343B6
:1016F200323658585F49444C455F4D4F44453A2075
:101702004461746120746F2077726974653A203085
:101712007825783B20546F20536C6176653A2030EF
:101722007825780000004932433A2825702920495B
:1017320032434343323658585F49444C455F4D4F1C
:1017420044453A202D3E20493243434332365858CD
:101752005F57524954455F4D4F44453B205772698C
:1017620074696E6720772F205354415254004932D6
:10177200433A282570292049324343433236585888
:101782005F49444C455F4D4F44453A202D3E204928
:1017920032434343323658585F524541445F4D4FBE
:1017A20044453B2052656164696E6720772F204E65
:1017B20041434B0000004932433A28257029204911
:1017C20032434343323658585F49444C455F4D4F8C
:1017D20044453A202D3E204932434343323658583D
:1017E2005F524541445F4D4F44453B205265616421
:1017F200696E6720772F2041434B00000000493279
:10180200433A282570292042757320627573792C1A
:10181200207472616E73616374696F6E206E6F748F
:10182200207374617274656400004932433A28255A
:1018320070292050656E64696E67206F6E20747225
:10184200616E73666572436F6D706C65746520734B
:10185200656D6170686F726500004932433A2825F0
:101862007029205472616E73616374696F6E2063B4
:101872006F6D706C6574656400004932433A2825C7
:101882007029205472616E73666572204F4B00009E
:1018920000004932433A2825702920706F73746919
:1018A2006E67207472616E73666572436F6D706CE1
:1018B2006574652073656D6170686F726500000004
:1018C200000001000000DFF800F0C1C20110DFF8E3
:1018D20000F0E3BF0110DFF800F085C10110DFF86E
:1018E20000F079B50110DFF800F0D5C00110DFF883
:1018F20000F0E1B50110DFF800F0F5C00110DFF8EB
:1019020000F049BA011020B1082324220021FFF778
:10191200E2BF704780B50120009009234FF40072A6
:101922000021DFF8400700F09BFE01BDDFF83C0715
:101932008068704710B50446132C04D300F055F9A3
:10194200D022FEF75EFEDFF82007201890F8ED00A7
:1019520010BD0022022904D1012806D140F2EE2254
:1019620003E0012808BF4FF47A7210467047DFF88F
:10197200F80690F8E61021B1D0F80C01010018BF6A
:10198200004770472DE9F041DFF8E08608F1E105F4
:101992008AB0A879002861D10120A871DFF8D06649
:1019A200DFF8D076307B68717068C8F80C0101A846
:1019B200FFF7A9FF00200690ADF81400079001ABD5
:1019C20000220FF23D5108F10C00FFF788FF01AB36
:1019D20000220FF2E95108F13000FFF780FF01AB5E
:1019E20000220FF2215108F15400FFF778FFB1688D
:1019F20001208847DFF8800600787868C0F38154B8
:101A0200707B20B1032C02D10120287003E0032C4B
:101A120018BF022C16D1022000F0CAF8032CDFF8FE
:101A220058160CBF4FF47A7042F210700968B0FB7E
:101A3200F1F108F15400FFF746FF08F15400FFF7F7
:101A420046FF05E0012C03D100F087FAFFF762FFA1
:101A5200386840075CBF002000F0AAF80AB0BDE871
:101A6200F08110B508B1140001D1022010BD8160CF
:101A7200C26003610146DFF8F005FEF7F4FA0020C8
:101A820010BD2DE9F047044600F08CF8052C04D374
:101A9200002340F2931200F081F8DFF8CC6504EBEA
:101AA2000609FEF7B6FD99F8E850824625B90023EB
:101AB20040F29B1200F072F8681E89F8E800C0B28A
:101AC20020B9B0680121A1408843B060504661E06E
:101AD2002DE9F047064600F065F8132E04D30023E3
:101AE20040F2B51200F05AF8DFF880A506EB0A04BE
:101AF200FEF78FFD94F8ED50814625B900234FF48F
:101B0200DF7200F04BF8681E84F8ED00C0B20028C6
:101B12003FD10FF2B850DFF8644500EB8606377804
:101B22007588380615D52168096A284688472168CC
:101B3200896A284688472168096B28468847DFF862
:101B4200401501200860DFF83C0500688007FAD5DF
:101B520012E0780606D50AEB85010020D1F80011C3
:101B6200884709E021688969284688472168496BC6
:101B7200284688470228F9D107F03F003F2818BFBE
:101B8200FFF7A6FF707800F03F003F2818BFFFF76D
:101B92009FFF4846BDE8F047FEF73FBD4146384645
:101BA200FEF72FBDDFF8E4040FF2105807887047E4
:101BB20010B50446052C05D300F017F840F20222B6
:101BC200FEF71FFDFEF725FDDFF8A0148A6801234A
:101BD200A3401A438A60611891F8E820521C81F8E8
:101BE200E820BDE81040FEF718BDDFF89C040FF2B4
:101BF200C841008800237047F8B50646132E05D366
:101C0200FFF7F3FF40F21D22FEF7FBFCFEF701FD9A
:101C12000446DFF85454701990F8ED104A1C00295C
:101C220080F8ED2039D10FF2A44000EB8607387816
:101C320000F03F003F2818BFFFF7DEFF787800F082
:101C42003F003F2818BFFFF7D7FF7E883878DFF8BC
:101C52002C7401060ED53968C9693046884739683F
:101C6200496A304688473968C96A3046884700F071
:101C720019F812E0400606D505EB86010120D1F8DD
:101C82000011884709E03968496930468847396850
:101C9200496B304688470128F9D12046BDE8F24019
:101CA200FEF7BBBCDFF8DC1301200860DFF8D803C5
:101CB20000688007FAD570472DE9F04F002483B001
:101CC2004FF0000A0128D04618BF012664D1DFF880
:101CD2009893D9F8DC0001285DD10220C9F8DC0014
:101CE200FFF709FE0090012000F042F9060054D1EE
:101CF200FFF7F9FDDFF89C1301900C60012000F062
:101D0200F4FC012804D1002000F087F94FF0010A09
:101D1200DFF88413DFF878030C6000681120FFF706
:101D220009FE08B14FF001081020FFF703FE08B1C9
:101D320048F002080F20FFF7FDFD08B148F0040843
:101D42000B20FFF7F7FDDFF8346320B13168096B30
:101D52004FF4806088470A20FFF7ECFD20B131681C
:101D6200096B4FF481608847DFF81813DFF82C7392
:101D7200DFF82CB30120086048F02000316889693F
:101D82008847DFF81C130120086099F80800C00793
:101D920007D5012416E0042673E00120C9F8DC000F
:101DA2006CE0584600F017FD0546042DF9D0012DD0
:101DB20004D1326A52680321584690473868800835
:101DC20080003860002000F012FDB04800683068E2
:101DD200806B804754B9012D04D1326A52680121C7
:101DE20058469047386840F0030038600120A949FE
:101DF200086040463168496988470B20FFF79AFD21
:101E020020B13168C96A4FF4806088470A20FFF721
:101E120091FD20B13168C96A4FF4816088479849C1
:101E22000120086000209E4908600320C9F8DC00F8
:101E32003168496B404688470128F9D1042000F0F7
:101E420097F8934901200860914800689648006815
:101E52008006FBD5BAF1000F1CBF012000F0DDF8AF
:101E6200FEF7EFF8082000F083F806460120C9F8D3
:101E7200DC000198FFF73BFD00F089FD0098FFF7B9
:101E82003EFD3046BDE8FE8F38B50446FEF7C1FB85
:101E9200054621467548FEF7FAF828462BE030B58C
:101EA200002401288BB004D021D303281DD018D3DD
:101EB2001DE001A8FFF727FD6C4D7B490694ADF8A4
:101EC2001440079401AB012205F17800FFF707FDEA
:101ED20000940023764A2C2105F19C00FEF7A5FB15
:101EE20005E000F0E4FD044601E000F086FE204635
:101EF2000BB030BD0000BDE83240FEF78EBB0000E3
:101F020000007047000010B582B0042000F0EDFB25
:101F1200022818BF032807D100F01FF8FFF7FAFCC8
:101F2200BDE816400220ACE56248534900684E4CB9
:101F3200C0F3815003280CBF4FF47A7041F288300D
:101F42000968B0FBF1F104F15400FFF7BCFC04F1A5
:101F52005400BDE81640FFF7BABC032000901C23D2
:101F62004FF0405200213F4800F07ABB00207047FA
:101F720070B504463D4E3046FEF76BF8002598B921
:101F82003046FEF76CF80646B068204207D0326948
:101F9200F3680021204698470546012D05D03046BA
:101FA200FEF75FF80600EFD1284670BD42490128CE
:101FB2000CBF40F2FF70002008600020704770B52F
:101FC200FEF727FB294E294D044696F8E00028B17A
:101FD20000F0A2FB68B1002086F8E0000220AD68A4
:101FE200A84706461020FFF7C3FF8EB10320A8477B
:101FF2000EE0214909683220B0FBF1F101B901215B
:1020020006F13000FFF75FFC06F13000FFF75FFCDE
:102012002046BDE87040FEF700BB38B501281ED14E
:1020220000F063FB01281CD000F06CFB0F4C12493E
:10203200012084F8E00032200968B0FBF1F505B90F
:10204200012504F1300000F0C4FF294604F13000FC
:10205200FFF739FC04F13000FFF739FC01E000F032
:102062007DFB002032BD00A00C4018090020D89949
:102072000100B03F00506145002014A00100B801EA
:1020820000102820086028200840840500002C2029
:1020920009400C400940000222432422084000402B
:1020A20003408001044314100940392D0000092B1C
:1020B2000000B43F005000000460706F7765722F1B
:1020C200506F7765724343323658582E63008F3F04
:1020D20000008F3F01008F3F02008F3F0300903FBF
:1020E20000018F3F0101903F0002903F00038F3FAC
:1020F20001048F3F00058F1208048F3F00048F3FB9
:102102000006513F00007F3F01003F3F04003F3F78
:1021120002003F3F01007F3F020070B500F08AFFDE
:1021220004460026DFF864540DE024FA06F0C007E6
:1021320008D505EB8600406820B1026811001CBF7B
:1021420031469047761C2868F6B28642EDD370BDC0
:10215200DFF83C040168DFF838040160DFF8380476
:1021620000F06FBF2DE9F0470E00F5B2044644BF00
:1021720086F0204686F4C046A80000F1804000F5B3
:10218200012004EA06030168DFF810743B4086EA86
:102192000102A1431943224004F4E023120EB3F5D5
:1021A200E02F02F0010202D1CA0105D411E014F4B9
:1021B200E02F08BF002A0CD001F4E022B2F5A02FD4
:1021C20004D0B2F5C02F04D1052200E0062262F34A
:1021D2001241DFF8C87301603868E84000F0010876
:1021E20005F1804000F50839B00DB8F1000F00F09C
:1021F200010A03D1600248BF89F800A020020DD570
:10220200FEF707FA01223968AA4033024CBF13468F
:102212000023914319433960FEF7FFF9B8F1000F2B
:1022220003D0600248BF89F800A0BDE8F08700290A
:1022320048BF0021800000F1804000F5012001F03C
:102242003F010268920941EA82110160704710B5AC
:10225200DFF85003006800F07F0401F064F8012801
:1022620004D101F056F8022808BF641C204610BDB4
:102272002DE9F04FA1B00546FFF784FB01F053F8BA
:102282000026012804D101F044F8022808BF0126E3
:10229200DFF81403C168C1F3815101294FF0010A2B
:1022A20004D10068000E0AFA00F00643DFF8FC02CF
:1022B200DFF8D8420078DFF8F492FFF7C8FF206019
:1022C20020B10146FF22484601F095F84FF0000880
:1022D200002706E00AFA00F001F8097040EA08084F
:1022E2007F1C55F82700C1B2FE290AD0FF29F7D07A
:1022F2002268914203D226FA00F2D207EAD50220DE
:102302006FE00920FFF778FCC4F8805008232422EC
:10231200002117A8FEF769F98DF874A017AA012108
:1023220004F1D400FEF769F90027DFF884A20BE07C
:102332005046FFF717FF4FF0FF31F8B2FFF777FF74
:102342000020CBF804007F1C2068874213D226FAB3
:1023520007F0C00704EB870B48BF0420F1D428FA2A
:1023620007F0C00747BF17F8090055F82010F8B268
:1023720040F4C041DCE70823302200210BA8FEF71D
:1023820050F9DFF83052DFF83022287813900BAB87
:1023920000200090102104F18400FEF746F9082382
:1023A2002822002101A8FEF754F96868DFF810120C
:1023B200079000230020089001AA04F1A000FEF774
:1023C2004CF9DFF8FC01016821F47C5141F4005121
:1023D20001600120DFF8F0110860DFF8EC110860FD
:1023E200002021B0BDE8F08F2DE9F041674E044690
:1023F2000D4606F1D40800F036F8002035B9002069
:1024020020606060A06085B125E0401C15F82010B6
:10241200FE29F4D0FF29F8D03268914204D206EBAB
:10242200810149680029F0D000244046FEF7E1F816
:102432002046BDE8F08106EB81020123546003FAD5
:1024420001F162681143616055F820205949204624
:1024520000F074F8384615F82010FE29E5D0471C24
:10246200FF29E8D1F6E74FF0FF314046FEF7CDB83D
:1024720010B50C46F0B1416821FA04F2D20719D521
:102482000122A2409143416000203F4901EB8402B6
:1024920050604648225C4648FF2A0EBF44F0204165
:1024A200D1F8801051F82210FFF75CFE4FF0FF3197
:1024B200204666E0022010BD10B5044607E090FAFF
:1024C200A0F0B0FA80F1C9B22046FFF7D1FF6068F0
:1024D2000028F4D110BD10B52C4B1C68A14204D2C7
:1024E20003EB81035B68834201D0022010BD100020
:1024F200374A18BF01205054002010BD35490968E1
:10250200C14001F00100704710B51F4B1C68CAB2F0
:10251200A24204D203EB82025268824201D002201C
:1025220010BD0A464FF4E02100F008F8002010BD6B
:1025320000281ABF016000200220704738B5124CF3
:1025420025680B461146CAB2AA4204D204EB8202A3
:102552005268824201D0022032BD1846FFF702FEC5
:10256200002032BD0B4610B51146074A1468A3423B
:1025720004D202EB83025268824201D0022010BDD3
:102582001846FFF754FE002010BDE8380020E02076
:102592000240E020026088390020007F077FD020BF
:1025A200024044130050A83F0050614500203443CC
:1025B2000020007FC767D0990100532100001D2130
:1025C2000000003009400C4009400800094000208A
:1025D20002408020024070B504460D461646FDF7C3
:1025E2002CFD401E8041C00F1A490A68002AFCD007
:1025F200012E02D0022E02D003E0257002E02580D7
:1026020000E0256001220A6000281CBFBDE870407E
:10261200FDF717BD70BD38B504460D46FDF70DFD3B
:10262200401E8041C00F0A490A68002AFCD0012DD1
:1026320002D0022D02D003E0247802E0248800E0D8
:10264200246801220A6008B1FDF7FBFC204632BD76
:10265200000000800C400B46114604221818BAE70D
:1026620010B500EB4100102B144600F5007002D3A8
:10267200103B001D240C0299994041EA0441BDE837
:1026820010400422A7E738B51D460818102D14463D
:1026920002D3103D801C240C0221FFF7BCFF204016
:1026A20080B2E84032BD70B50446E00782B00D4604
:1026B200434E05D5A8B200900023012200F011F884
:1026C200A00705D5A8B200900123022200F009F864
:1026D200600705D5ADB2009502230C2200F001F887
:1026E20073BD00213046FFF7BBBF0146042907BF77
:1026F2001D234FF0C0421C234FF08052304834213A
:10270200FFF7C1BF80B501210320FFF7CCFF00F026
:1027120094FE2B49886001BD80B50120FFF7E5FFDB
:10272200012819D00023012234212448FFF7ABFFEE
:1027320098B100F026F800F080FE21498B680A6803
:10274200C860A2EB9202C01A1F4B5843000C0860EB
:10275200904238BF10460860012002BD10B500212A
:102762000320FFF7A0FF0120FFF7BFFF08B100F031
:1027720008F8134C00F061FE606000F074FE206106
:1027820010BD1148006800F082BE10B510490A68F9
:1027920010490968140424161B384443E41004EB5E
:1027A2002244120600FB00F3121609065A4358434C
:1027B200091604EBA222484302EBA04010BD00A080
:1027C2000C405044002040420F0080000010901343
:1027D2000050A4100050006801074CBF042000F014
:1027E2000300704700001628A8BF203870472DE963
:1027F200F84F06469348934C0068934D800704D5E2
:102802000820A87192482060BFE000F02CFE8046AC
:102812009048006800900027001700F10109009815
:10282200800208D4C8F13E00C0100928A8BF0820C1
:102832008145B8BF814687480068C0F30460FFF74E
:10284200D2FF824685480068C0F30440FFF7CBFF01
:1028520009EB0A011629A8BF152104DA6FF0090253
:102862009142B8BF114601F01F027C4B42F4F8526C
:102872001A807B4A126812F0030F18BF0127520711
:1028820048BF47F002070EB147F0040795F9072049
:10289200A8EB0202052A02DAAA7997425DD0A8F1D2
:1028A2000F0C0026BCF1000FB64607F0010207F03C
:1028B2000403DFF8B09123D40CEB0C1C4FEA2C2E4E
:1028C200BEF1080F28BF4FF0070E7646072E28BF2D
:1028D200062609EB860A59F82660DAF804A0AAEB64
:1028E200060A0AF0FF0613B1CAF3072B5E445FEA39
:1028F200877B44BFCAF3074B5E440AB106EB1A66F4
:1029020059F82E9009F0FF0A13B1C9F307239A442C
:10291200BB0744BFC9F307439A440AB10AEB196AD9
:10292200401AACEB0E220099AF717243803201283B
:10293200B8BF0120342301F0FF0158430AEB1222F1
:102942004843B0FBF2F0B0F5803F28BF4FF6FF706E
:1029520008F30708A88085F8078043480068A9881B
:10296200286000201F2904D21F21A98004E0490801
:10297200401CB1F5007FFAD20F39090940EAC100C3
:102982003B490843206000206060BDE8F18F10B52C
:102992003848006884B21CB300F065FD2B4991F9F8
:1029A2000720904205DA6FF07F029042B8BF1046CE
:1029B200C8718888844201D28C8010BD2B4A12686B
:1029C2000B68D21A921C202A28BF1F22231A5208EF
:1029D200D3401818B0F5803F28BF4FF6FF708880AB
:1029E20010BD2448026802B9704710B5234B99689C
:1029F20001F04060B0F1406F21D011480468A40793
:102A02001DD45C68A4071AD404681B68C3F303537B
:102A12001C331B0114F0050F06D09A420FD26FF03F
:102A220005012140016010BD934208D20A0158BF3E
:102A320044F00104490158BF44F00404046010BD8D
:102A420000000000094030100940F8440020FDFD5C
:102A5200A400B43F0050B81200503C1100506E6206
:102A62000840242208409C1300500820094000E737
:102A7200A4803410094028500940AC3F0050DFF8D0
:102A820000F099C8011010B50C18FDF7D6FA401ED7
:102A92008041C00FDFF8F0130A68002AFCD02468D6
:102AA20001220A6008B1FDF7CCFA204610BD38B504
:102AB200DFF8D843DFF8D8132078897B0025084354
:102AC2000AD0FDF7A6FDA178002906BF0121A17059
:102AD2000125FDF7A2FD0DB1002032BD0220FFF756
:102AE20067F80E20FFF788F8DFF8A803016809B13C
:102AF200012032BDDFF8A023402111600121C16114
:102B02000020607032BD70B5DFF88C0382B0002106
:102B120001604821C160DFF8800300F1D804A17A86
:102B2200002968D00129DFF8742329D110684BF2FB
:102B3200F5214843050ADFF868030068C0F38140C5
:102B4200012806D100F08FFCFFF71FFE684305EB5A
:102B52009055607B10B10020607305E0D248006898
:102B6200000215EB10204508D0480560290C416091
:102B720001218160C648807B00283AD0052039E0D7
:102B8200022909D11568284600F0FDF8A5F2FF5088
:102B920003282ED308202DE003292CD1116800F13F
:102BA200B805A1F5C0612868E961002848BF404224
:102BB200002948BF49428842A8BF002018DA686845
:102BC200BB4E80B2009008234FF47F423021304642
:102BD200FFF746FDA86800F072F904213046FFF7BE
:102BE2003FFDA86900F071F93046FFF739FD012079
:102BF20020700B202073BDE873402DE9F041A64CF4
:102C0200DFF8AC82AB4FAB4EA34804F1E10582B0D2
:102C1200E9784A1E0B2A00F28080DFE802F00622E1
:102C220033465B33465B3346636EA34909680968E2
:102C3200202088470F20F860072341F61D50386195
:102C42004FF4C0720220009000F070F807234FF496
:102C5200C07200214046FFF716FD012030600220BD
:102C620044E00120F861287800281DBF002030616F
:102C720003200620E870032038600020706070682E
:102C8200800734D4E878032804D1022000F04BF8FE
:102C9200042007E0002000F046F8E87806280CBF80
:102CA20007200A20E87001201AE0042903D120211C
:102CB200B961012105E00122BA610A290CBF032191
:102CC20002216970002139600821C1600160012080
:102CD200386026E005290CBF06200920E870002094
:102CE200706004E00020306070600C20E87004F135
:102CF2007800BDE8F641FEF7EABD0021016001203F
:102D0200644908600E20FEF7E3FE0220FEF7B9FEDA
:102D12000120E8700020A87003E0BDE8F341FFF74E
:102D2200AEBEBDE8F381009005236022002140463B
:102D3200FFF796BC000080B558495E4891F8E41050
:102D4200891E0A291AD8DFE801F0060A0E190A0EAE
:102D5200190A0E19120001688907FCD510E04168B2
:102D62008907FCD40CE041688907FCD508E00168BA
:102D72008907FCD441688907FCD401E0FFF77FFE94
:102D8200BDE8014039E7F8B50746484C30212046F6
:102D9200FFF779FE414E06F1B805C0F307206860DF
:102DA20004212046FFF76FFEC0F38440A860202173
:102DB2002046FFF768FEC0F38120A861B7F5C06026
:102DC200286002D186F8D800F1BD296996F8D8208A
:102DD2002AB96A68A968EA60E861AA696A61E86969
:102DE20000284CBF6FF00102022200EB40001018D5
:102DF200421000EB927001EBA0006968E9600128C3
:102E020010DA6A69032A04D1153001281DDA01207B
:102E12001BE00B300128B8BF0120491E48BF00212A
:102E2200E96007E01F2812DB6A692AB915381F28F2
:102E3200A8BF1E20032109E00B381F28A8BF1E20AF
:102E4200491C4029A8BF3F21E9600021696128612E
:102E52000823E86880B200904FF47F42302100F0EE
:102E62003CF80120009011234FF4003200F034F8B6
:102E7200286900F024F800F02FF8686900F025F8BE
:102E820000F02BF8F1BD00800C40F9090020D89920
:102E9200010004800C402C500C401809002008400E
:102EA2000C40B43F0050102009403C600C4000A090
:102EB2000C4000400C4034600C40A001001080B275
:102EC200009012234FF4F802704780B200900A2358
:102ED2004FF440622021704704212046FFF7C0BB17
:102EE2000000DFF800F095C00110DFF800F00DA837
:102EF2000110DFF800F0BDBE0110DFF800F089C25A
:102F02000110DFF800F069C70110FEE77FE086E0FC
:102F120070B5FFF7FBFFDFF824610446B0680021BB
:102F2200FFF7DFFF05467069451BB069A84238BF4D
:102F320000252046FFF7EBFF284670BD2DE9F04142
:102F4200FFF7E4FFDFF8F8400746A0680121FFF72A
:102F5200C8FF0121A1830021E183656922682168FC
:102F6200461B401AAA1A904203D20020A083384678
:102F72002CE03846FFF7CBFF002706E07D192946F3
:102F82000120FFF7B2FFF61B0746BE42F6D2FFF75B
:102F9200BDFF8046E08B012804D129460020FFF7BF
:102FA200A4FF0746A06917F1010F08BF064603D028
:102FB200BE1BB04238BF064671193046FFF799FF73
:102FC200012020840020A08325604046BDE8F04116
:102FD2009DE700218182DFF86410C0684A6990424F
:102FE20004D1DFF87C201068FEF771BC704770B521
:102FF20004460D461646FFF789FFA561E661BDE866
:10300200704084E701617047808A70477047EFF330
:103012001180DFF850100A6882F31188704780F33C
:1030220011887047014688680969401A7047EEE7BF
:10303200F5E70000DFF8340080687047000078018F
:10304200002038B504460D46FFF7F1FF616A0D43D3
:103052006562FFF7EDFF2046BDE83240FDF7F5BAA5
:10306200000018A001000CA00100C801002081602E
:1030720042607047102804D3DFF80C101038C1F8F2
:10308200000F7047000000E000E000F018BAFFF700
:10309200BEBFFFF7C4BFDFF82C12C20744BF012234
:1030A2000A60820744BF4FF480720A60400744BF3F
:1030B2004FF48030086070470021DFF80C22C3070C
:1030C20048BF1168830748BF116A400748BF116CA7
:1030D200080018BF0120C0B270470000DFF8F021DD
:1030E200C30748BF1160830748BF5160400748BF0C
:1030F2009160704710B504460020D4E90A2347F6D0
:10310200906100F088FA0123994228BF4FF0FF3006
:1031120010BD1CB50C4600F090F9011D201AB0F14B
:10312200004F05D8081BB0F1004F38BF8C4200D2C7
:103132000C462146BDE81C400120CFE72DE9F041B5
:1031420080460A46D8E90A01D8E90C45A0FB026785
:1031520001FB0277A6196F41340C002244EA0741B1
:103162004046FFF7D6FFC8E90E67BDE8F081F8B523
:103172000646FFF78CFF0446DFF85C51DFF85C710E
:103182000120E861FFF787FFF96A0A6A1420904775
:103192003169B1F5802F34BF0421090C0120FFF7FA
:1031A2009DFF3A681368232100209847DFF8301109
:1031B20001200860DFF83001016821F4E02141F4C8
:1031C20080310160012028602046BDE8F24060E7BE
:1031D20000F03DB938B5DFF8F800DFF804114568B2
:1031E2000C6844B10220FFF767FF20B10220FFF70D
:1031F20052FF0120A047DFF8F000046844B1042028
:10320200FFF75AFF20B10420FFF745FF0220A04735
:103212000120FFF751FF30B100F006F86869A96993
:10322200BDE83440084731BD012034E7F8B5044613
:103232000D46FFF7CDFFD4E90A6732463B4600F060
:10324200EAF93DB1A6FB002306FB013307FB00337D
:10325200C4E90C23F2BD10B5DFF87C00DFF8904022
:10326200002101600121C16121602068FFF7DCFFBC
:10327200DFF884100A68136A14209847206810BD8A
:1032820080B5DFF86C100868FFF7A2FF000C40EA77
:10329200014002BD80B586B0002103A8FFF72DFED4
:1032A20070B1DFF85C20DFF85C0013680093002146
:1032B20002910191AE23018800220020FFF721FE36
:1032C20007B000BD000004200940800024431820FC
:1032D2000940E40100200000244384010010800220
:1032E200244304A001000020094008A001002C2072
:1032F2000940EC010020B0010010DFF81000C08886
:10330200704710A0010080040000FEE77047F00142
:10331200002030480068000C00F00700052828BF94
:103322004FF0FF3070472C490A68C2F30F324BF658
:103332009A139A424FF0FF3006D10868000F0B280B
:103342000CBF0420002070474BF6BE118A4201D107
:10335200012070474BF641318A4201D10320704768
:103362004BF620318A4208BF0220704700001A48FB
:10337200F8B50068050F1948006800F0FF06802EB6
:1033820028BF0026FFF7CFFF04284FF0FF3406F1D5
:103392000A071DD8DFE800F003121A1A1B00012DDC
:1033A20012D0032D06D0072D06D0082D08BF06F136
:1033B20016040DE014240BE0152409E025B1022DBA
:1033C20008BF06F1140403E00A2401E005B93C46F3
:1033D20060B2F2BD00009412005018130050A01009
:1033E200005080B5FFF79FFF20B9FFF7C0FF1628F6
:1033F20000DB01BDFEE762F30F2262F31F4200B55C
:1034020000BF130096469446103928BFA0E80C501E
:10341200FAD85FEA417C28BF0CC048BF40F8042BB1
:10342200C90728BF20F8022B48BF00F8012B00BDB6
:10343200FDF7EFB8FDF7F1B80000094801684268EE
:1034420003689942FAD1100C40EA0140704710B566
:10345200044A136850681468A3421946F9D110BD92
:103462000000082009400748084A8168127800686D
:1034720052B2A0F54070C9035043C913A1EB20100A
:10348200803000127047285009400C13005070B56C
:103492000446FCF7D2FD451EAD41ED0F074E3068E4
:1034A2000028FCD0A04701203060002D1CBFBDE8E1
:1034B2007040FCF7C6BD70BD000000800C4010B526
:1034C2004048046814F1010F08BF0024FFF789FF88
:1034D2003D490020086001203C4908603C490860E1
:1034E20000F077FB3B48006820B13A48006820466C
:1034F20000F01CF83949394A00200860394801684F
:103502006FF31B411143016037480168C1F3013178
:10351200012906D10168344A114041F400320260A7
:103522000160324800680028FBD110BD70B5054625
:103532003048012101602F4909680029FBD02E4C37
:103542002F4AC021216053682E499B075DBF136833
:103552001B0C43F0F00372230B7000210163966889
:10356200304600F070F93146284600F09FF92548B0
:10357200816D89B240F20F22914213D20168006834
:10358200C1F30361C0F3034001B1491E072805D00E
:1035920006280EBF0720801C00F00F0041EA001031
:1035A2001A490870304600F0F0F918490968C968EC
:1035B200022088474020206001201549086070BD24
:1035C20000001C130050840460425C600C4008221E
:1035D200044380012843000120438C21084000005D
:1035E20039014820034004000940FFFFFCFC0C00A5
:1035F2006842101009409402224300600C40AC3F24
:10360200005056620840BC12005002600840A001FF
:10361200001094046042B3BBD9B1B2F5803F7DD2B1
:10362200022A1ED98C46B1FBF2F102FB11C31B0424
:1036320043EA1043B3FBF2FC02FB1C3380B240EAC4
:103642000343B3FBF2F002FB103240EA0C400023CA
:103652007047022A05D98446B0FBF2F002FB10C281
:1036620070474AB105D100F0010249085FEA300013
:10367200704700220023704700F01BBB0B000200C2
:10368200002100207047904271EB030CF6D3B3F592
:10369200803F2FD2F0B5B3FA83F7B1FA81F4A7F1E4
:1036A2000F0E3D1B5340CEF1200602FA0EF2F341FB
:1036B2005340B5F10F0746D80F3C2C444140C4F1AA
:1036C2002006A040F1414140B1FBF3F603FB161185
:1036D200A2FB0645001BA94102D2761E8018594161
:1036E20080EA010221FA0EF362FA0EF200215A4038
:1036F2003046F0BD30B4B1FBF3FC03FB1C11A2FB5E
:103702000C45001BA94103D2ACF1010C80185941B0
:1037120030BC02460B46604600217047B2F1807F02
:1037220065D3F0B5B2FA82F7B1FA81F4C7F10F06A8
:103732003D1B22FA06F307F1110EF24120355A40E1
:10374200B5F10F07B8D94140C4F12006A040F141BC
:103752004140B1FBF3FC03FB1C11A2FB0C45001B17
:10376200A94103D2BCF1010C801859410F2F12D389
:103772000F3FC90341EA5041B1FBF3F603FB1611B7
:10378200A2FB0645D4EBC030A94102D2761E8018B6
:10379200594146EACC3C07B34140C7F12006B84044
:1037A200F1414140B1FBF3F603FB1611A2FB0645C2
:1037B200001BA94102D2761E8018594180EA0102FB
:1037C20021FA0EF3C7F1200462FA0EF20CFA07F0A6
:1037D2005A402CFA04F13043F0BD80EA010221FA8A
:1037E2000EF3002162FA0EF260465A40F0BD8C469A
:1037F200B1FBF2F102FB11C31B0243EA1063B3FBFC
:10380200F2FC02FB1C331B024CEA002043EA106369
:10381200B3FBF2FC02FB1C331B024CEA002043EA1E
:103822001063B3FBF2FC02FB1C331B024CEA0020C8
:1038320043EA1063B3FBF2FC02FB1C324CEA0020A9
:10384200002370470000DFF8E8130968C1F3046140
:103852001629A8BF203901EB2071491C1629A8BFDF
:10386200152104DA6FF009029142B8BF114601F046
:103872001F01DFF8C02341F4F8511180DFF8BC13B7
:10388200096889074FBF40F040600021DFF8B0238C
:103892001160DFF8AC13C0F3C06282F00102C0F322
:1038A20080600A6080F001008860704770B505464C
:1038B20082B0084600F0EEF80246DFF8884318218D
:1038C20000F060F800F012F980B20090002340F29C
:1038D200FF322C212046FEF7C3FEDFF86C63F0684E
:1038E200C0F30D021C2100F04DF8706800F0FC32AC
:1038F200142100F047F83068DFF85413DFF85463FE
:1039020001EA0002102100F03DF8284600F0F8F824
:1039120002460C2100F036F8284600F01CF940005F
:1039220040F020003072284600F01EF940F01000EE
:103932003072284600F021F90246282100F022F8D0
:10394200284600F0FFF8400040F06000F072284680
:1039520000F02DF9C00040F080003070284600F0E1
:103962002FF98000BC4940F47C400880284600F0D2
:1039720011F90246082100F005F8B7494FF480001A
:10398200086073BD2046FEF766BEF8B5810C01F0F3
:1039920003010129B24CB04D02D002292AD026E0FF
:1039A200216A8A0323D44FF480422A606FF08F0683
:1039B200AC4AD2F8023033404E0A06F08006334356
:1039C200C1F303363343C2F80230C1F30326D2F8FF
:1039D20001301B0946EA0313C2F801306FF0E70613
:1039E2001368334001F0E7011943116002E04FF020
:1039F200004129609C4E9C4AB16809075CBF402186
:103A0200A9624FF400712964800D216AC90C01F08A
:103A1200030141F0300110F00300117003D00228BD
:103A220026D008D326E001210420FEF73CFE8F4871
:103A320000F0F0F822E00120FEF757FE0746394673
:103A42000420FEF730FE0420FEF74FFEB842FAD102
:103A5200366826F07F4000F0DDF8854B1B681B6856
:103A62004FF060220721300E98474FF480602860A3
:103A7200032100E002210420FEF715FE20687D49A3
:103A820000F03F00087047F618007B4908807B4829
:103A92000068F1BD7B490968C1F383628303C1F306
:103AA2008F2120D4000400164FF6FF7307E0490867
:103AB20004D11946520804BF01220121401C0028EA
:103AC200F5D401280FDB490041F00101B1F5803F37
:103AD20021BF0121520042F00102102A24BF0F220D
:103AE2001946401EEDE741EA024070476548016809
:103AF20000680002C1F3870100F440700843704778
:103B020030B5604C61490A686568ED07C2F303513C
:103B1200C2F303430AD42468250501EB257124046A
:103B220081F3040103EB247383F304031B0443EACC
:103B3200015193B21943222824BF02F0804001436D
:103B4200084630BD0021202803D350480068C0F346
:103B52000151084670470121222803D34D480068CD
:103B6200C0F30071084670470121222803D3484858
:103B72000068C0F34071084670470021202807D32F
:103B820043480068C10C01F44071C0F38450014302
:103B92000846704720283F4907D33C483F4A0068FF
:103BA200810A02EA003040EA81510846704700214A
:103BB200222803D337480068C0F3C0610846704723
:103BC2000021222803D332480068C0F34551084639
:103BD2007047324800680028FBD13148324A4168B8
:103BE20012688908890041F0005141F0040152072E
:103BF20048BF41F001010BD4026812F0030F07D055
:103C020041F003024260026802F00302032AFAD181
:103C120041607047254982B20A60C0F3074048609C
:103C220001208860224800680028FBD000208860BC
:103C32007047B81200506E620840000009409404B8
:103C42002A430000204300A00C4070130050FFFFE5
:103C5200FC0041A10C40DCA10C4040A00C406C13C4
:103C620000500A600840A83F005008A10C40BD3730
:103C72008600B40100100BB00C4070B00C402C2038
:103C8200094050130050AC3F005078130050981375
:103C920000508C13005000803F4000F03F000C00A9
:103CA200684200400340B03F00503C600C40840832
:103CB2008C437047000020B1082328220021FCF722
:103CC200C8BC704720B1082330220021FCF7A9BCF0
:103CD200704738B50546FCF79CFC2C680CB121688E
:103CE2002960FCF79AFC204632BD70B505460E46A7
:103CF2002C68002030601CB9FCF78BFC2E600DE0B4
:103D0200FCF787FC00E0246821680029FBD1B4425B
:103D120003D1FCF782FC002070BD2660FCF77DFC1D
:103D2200012070BD10B501460022DFF8D40A00EB75
:103D32004210C37F1C0603D5B0F91C308B4203D05E
:103D4200521C082AF1DB002010BD7CB50446FCF7AA
:103D520060FCDFF8606A0546B07EF0B1401EB076C6
:103D6200C0B2D0B9082100F003F9B4B1B06B703021
:103D7200FFF72FF9B16BDFF88C2AC8681168241A93
:103D8200B4FBF1F1012906F1EC0498BF01212046B0
:103D9200FDF799FD2046FDF79AFD00F0E2BE38B529
:103DA2000446207B00F00F00022802BFDFF8085A09
:103DB200287E002815D100F000FD0146A068800889
:103DC200A0EB91006FF0704188420ADAA96BCA68D1
:103DD200B0F1704FB8BF00F1804002F57A728242B2
:103DE20000DB002032BD38B5DFF8201ADFF8200AE8
:103DF2000C68DFF8C0590440E0430860A00606D50D
:103E02004868810603D54FF4005100F0BCFB14F45E
:103E1200602F09D0286904F4602404432C6105F161
:103E22009C00BDE834403CE031BD7CB5FCF7F1FBC1
:103E3200DFF884590446286910F4602F26D02E69D1
:103E4200F601360EF00748BF002606D4B00748BF79
:103E5200012602D4700748BF0226701D40B200F04E
:103E6200FCFF2969012206F1110082409143296178
:103E72002046FCF7D2FB05EB860044684CB128686B
:103E820000224FF00063711DA04702E02046FCF7BC
:103E9200C4FB286920B105F19C00BDE87C4000E02C
:103EA20073BD0021FFF7CDB8FEB501F020F804463E
:103EB200DFF80469DFF8485B14F00A0F1CBFB16A2F
:103EC200002917D00020B062D1E90423886902EAF0
:103ED200040747F0020738438861686990436861C4
:103EE200E8689843E86006F13000FFF7FEFE022121
:103EF20000F03EF8B26AA0070BD4D2E904010440F4
:103F020007D0F2624FF4804190690443946100F05B
:103F12002FF8B06A58BB746A4CB3E068B16B884240
:103F220008D006F14C0003B0BDE8F0404FF48051D8
:103F3200FFF787B8A068FFF732FFB06418B1B06C22
:103F4200BDE8FE4001E7D4E904016A6902436A61FF
:103F52000020EA680A43EA60E861A0682860E8692C
:103F62000028FCD006F12400FFF7B3FEB462F7BDCF
:103F720006F14C00FFF765B80020E6E6F8B5074603
:103F820014463E6E1D4606B1B047A00708D4D7E9D5
:103F92001601204029400022914208BF904207D0DA
:103FA200C7E91A4507F13800BDE8F240FCF721BB2A
:103FB200F1BDFEE780B5FFF73DF8DFF8F8270146CF
:103FC200906BD26BBDE80840104710B5DFF8E847A8
:103FD2000FF23D01E06B884202D1FFF738FA20640C
:103FE20004F14C00BDE810400421FFF72AB880B567
:103FF20000F07DFFDFF80C1A084207D0BDE804404C
:104002004FF00051DFF8500BFFF71BB801BD042938
:1040120000D0704738B5DFF89C57686A08B1C068AD
:10402200A863A86BDFF8E02941680B781360126877
:1040320009788A421CBF8469002C05D000224FF007
:1040420000736FF0FF01A0470220FDF7B1FD1120C0
:10405200FDF7D2FD01206877A86B017C002919BF0A
:10406200E87E00280E20FDF7C7FDA86BDFF8902937
:1040720040688168002904BFC068002804D000217C
:10408200D161DFF88409106040F2FF70DFF8801A16
:10409200086000219161DFF8680950610FF2110098
:1040A200E8631920BDE83240FCF7DFBA00002DE9D1
:1040B200F8430646880084B040F1A680DFF8F8464F
:1040C200A06B4168486800B18047A06BDFF8309967
:1040D20042689068002804BFD16800290DD000F022
:1040E20096F8906800B18047A06B4168C86800B13B
:1040F2008047DFF8640A00F002FF0020C9F81C00C4
:1041020040F60A08DFF8580ADFF8705AC9F80000CA
:10411200012000F03CFF0FF25510E063A5F800808B
:10412200002068800021287B00F0F000287369607D
:10413200687B00F023FA6873B26817467980E17EE3
:1041420009B1707CA0B1118840F60203994205D1F1
:104152003B8A4FF60F4003403B8204E0398B4FF617
:104162000F400140398300207074104600F0FDFEBC
:10417200B068694600F0EBFE684600F0F7FE78682A
:1041820020B10188414518BF0746F8D17D6040F64D
:104192000301787B00F0F0007873606A8068008821
:1041A20088421CBF40F60401884217D0308CA8B167
:1041B20000217184716206F12C004278017802F0CC
:1041C200F00201F0F00142F001020170427006F1CA
:1041D20020006860687B00F0F000687300F017F858
:1041E2000120FEF782FA012806D0787B00F0C6F99A
:1041F20078730FF22900E0634FF6FF30B1680A8A44
:1042020002400A82C9F8001005B0BDE8F083D9F86F
:104212001C000028FBD00021C9F81C107047DFF8F1
:104222005C29114200D17047012010B5FEF75DFAFA
:104232000128DFF8804508D10FF23501DFF83C098B
:10424200E163DFF8B817086010BDDFF8C82A10680C
:104252003221B1FBF0F1012998BF0121EC34204653
:10426200FDF731FB2046BDE81040FDF730BB2DE9DC
:10427200FE4389465FEA4941DFF83C5519D5FCF710
:10428200C8F9EE6AB769B9070ED46EB10021B161FF
:10429200FCF7C3F9706848B1B6F91C10F06876688B
:1042A2003A460023B04701E0FCF7B7F929F4804908
:1042B2003BE15FEA897162D52E6B002E57D0B1685F
:1042C200202040F6040240F6030300291CBFC7B2B7
:1042D200002F00F037810F889F421EBF9742496826
:1042E200401EF2D129E100224FF08043B6F91C10A2
:1042F200F0687768B847FCF78CF90746E88E401CEF
:10430200C0F30B00E8860020296BC87705F1300066
:10431200FFF7DFFC3846FCF780F9B5F93600F268A2
:1043220002F1B803B3F90010884204BF297E0029C4
:104332001DD1987808B9106820B900209870FFF74D
:1043420004FD14E0A96B0B6813F1010F0FD0DFF825
:10435200B4743968B0FBF1F1022938BF012102F1CE
:104362007000FDF7B0FAF0687030FDF7B0FA286B14
:10437200002829F0020901D049F00209D5E05FEADC
:10438200890105F1800640F60908DFF8EC476AD595
:10439200074640F60202B8680188914205D1028AB6
:1043A2002D2161F30912028204E0028B2D2161F3B7
:1043B20009120283286CB8B10420FEF796F998B16D
:1043C200FFF745F8296C814228BF401E401A798ABE
:1043D20011EB1030F86040F2D761A0F2EE20884273
:1043E20024BF40F6C410F860D7F818C0BCF1000F23
:1043F2001CBFDFF8A8198C450DD0607B10F00F0FA1
:1044020004BF788C404506D100224FF000736FF450
:1044120080713846E0470022DFF894193046FEF7F3
:1044220026FE287F50B10221ADF80010684600F048
:1044320066FDBDF80800A882002028770120687672
:104442000021A87E6977401CA8761920FEF712FE8B
:104452007E692EB100224FF0806300213846B047BA
:1044620029F0005961E095F8200029F0080730B1E1
:104472005FEA097147D5002085F8200041E05FEA34
:10448200097040D5002068760120A877002000F04E
:104492007EFD0FF2F900DFF81819E86300223046BA
:1044A200FEF7E5FDE97EDFF8546509B1287F10B11A
:1044B2000121E9760FE0A86CE8B1FEF7C8FF296C8C
:1044C2006A6C401A02EB10326A64A86CB2EBC01F2D
:1044D20011D300206864A4F800800021607B00F002
:1044E2004DF8607300206080207B00F0F0002073A4
:1044F2006160346003E04FF0005100F044F80020A6
:104502002864B94611E05FEA89400ED5AE6A002EF2
:104512001CBF7068002806D0B6F91C10F0687668D7
:1045220000222023B04729F40059B9F1000F02D02C
:10453200494600F028F8BDE8F783F06818222030D9
:1045420000F037FDB2690020B061706800283FF4C6
:10455200D2AEF07F002300F00700012842F00202F1
:1045620008D002283FF4BFAE042804BF00224FF057
:104572008053BBE600224FF00053B7E600F0F00094
:1045820040F00100704705F14C00FEF75ABD70B5CE
:104592000546880029D500F0BFFC864CDFF890085C
:1045A200DFF89068E063307818B905F13800FCF75D
:1045B20020F8DFF85815002008600220FDF761FAA4
:1045C2001120FDF785FA287C10B90E20FDF780FA3C
:1045D2000020E083B07840B104F14C000021B170BA
:1045E2000421BDE87040FEF72CBD70BD30B58DB022
:1045F200FDF7C8F9DFF84008DFF8404801686D4D63
:1046020041F00201016001A8FFF755FBA078DFF835
:1046120038180790002301AA05F14C00FCF71DF899
:1046220001A8FFF74FFB2178DFF8882709910020C6
:10463200ADF81C00009001AB192105F18000FBF7D9
:10464200F4FF01A8FFF737FBE078DFF800180790C6
:10465200002301AA05F19C00FBF7FFFF01A8FFF769
:1046620031FB0120ADF81C00002160780990009117
:1046720001ABDFF8DC271A2105F1D000FBF7D5FFEB
:1046820000230022DFF8D01705F1EC00FDF727F92F
:10469200DFF89C07E8630DB04FF6FF70A882012097
:1046A20028770020E875E8766877E88385F82000A7
:1046B200286430BD2DE9F0410446DFF8E0070068C8
:1046C2000E46C1068EB090461D461AD500F061FB1B
:1046D20005D4DFF8CC2713681A78D20611D5000763
:1046E2000FD5080702D400F041FA0AD54CB9DFF819
:1046F200B4770FF2C0613888002340F20152FBF711
:1047020080FFDFF82C77397819B9FFF76FFF0120A6
:104712003870002E1CBF6660B8F1000F48D0C4F894
:104722000880FBF776FF797800293FD101227A7061
:10473200FBF773FF1DB909A800F005FB09AD286856
:1047420020606868E060287C2074A86860610120AD
:1047520060744FF48D706082E86800B1A061A0219E
:1047620004F1200000F069FC08232422002168469D
:10477200FBF73BFF01208DF818006A46002104F187
:104782003800FBF73AFF0823242200216846FDF790
:10479200A2F806946B460022DFF8101704F17000AD
:1047A200FDF79DF820460EB0BDE8F081FBF735FF1E
:1047B2000020F8E70000D833002070B5FBF729FF8E
:1047C200DFF8EC26517E21B1DFF8E826146800F00C
:1047D20036BBFBF722FFFEF73AFE10F50030DFF89A
:1047E200D426DFF8946341F10001A2FB004502FBED
:1047F200015531690020221845EB0103184670BDAE
:104802000000E835002014A0010008100440200038
:104812000E002DE9F84F0446DFF8840606680D46BF
:10482200F10692469B4636D5DFF89006076817F0E8
:10483200100905D1DFF86C0601680A78D0062AD57E
:1048420016F008060FF270580CD0380702D400F0A8
:104852008DF907D534B900F05CF940F2B9524146FE
:10486200FBF7CFFEB9F1000F05D1DFF83416086867
:104872000278D1060FD576B1380702D400F076F966
:1048820009D545B9DFF820060088002340F2BA5264
:104892004146FBF7B6FEDFF81466FBF7BAFEB6F93F
:1048A20034108146B6F93600091AC1F30B01082902
:1048B2006FF0010848DAB08EDFF80416401CC0F32E
:1048C2000B00B086B6F93400ADF8000000200206F5
:1048D200D20C01F11F039B5C1F0640F18E80401C2D
:1048E200C2B2082AF3DB002704F17000FEF771FB65
:1048F200BD6087F81EA0C7F804B02021BDF80000F3
:10490200B883FC60DDE90A23DFF8B80510401940DE
:10491200C7E90401B8340020F87740F6FF75706AE1
:104922000028394606F1240006D0FFF7DEF930B13F
:1049320000F06DF8484653E0FFF7D7F948B9B08E5A
:104942002D18C5F30B05B5864846FBF766FE4046B3
:1049520051E000F05CF8F17F00291CBF707E002856
:1049620008D00020F07730770121B07E86F8201041
:10497200401CB0764846FBF750FEB16A002938D198
:10498200707E18B11920FEF775FB32E0707F80BB94
:10499200FBF73FFE0446B07F20B1DFF894240121EB
:1049A20091701CE0B868FFF7FAF9B064D8B1B06B47
:1049B200DFF86413C0680968B26C121AB2FBF1F234
:1049C200012A83BFB26C101AB0FBF1F1012106F18A
:1049D200EC052846FCF777FF2846FCF778FF2046CF
:1049E200FBF71BFE05E02046FBF717FE0421FFF74D
:1049F200BFFABDF90000BDE8F28F8F1874E700100E
:104A0200044002000040D021084051000706BDF8D2
:104A120000002080F87F40F08000F877A07801281D
:104A220002D10021A170317770472DE9F84F8246FB
:104A3200DFF86C0404680F46E1069046994634D5C7
:104A4200DFF86004DFF8741405680E68F00602D41B
:104A52002878C10629D520070FF25C3B0ED5300716
:104A620002D42878010709D5BAF1000F06D100F067
:104A720050F840F22F625946FBF7C3FDF10602D40B
:104A82002878C10611D520070FD5300702D428781F
:104A920001070AD5380008D5DFF80C040088002386
:104AA2004FF4C6625946FBF7ACFDFCF71CFF044607
:104AB2003846FFF737F9070003D12046FCF717FF06
:104AC2000AE0F87F10F0070F09D02046FCF70FFF2D
:104AD200F87F10F0070FFBD10220002115E0796862
:104AE200DFF8E403814203D07968CAF86010786085
:104AF200CAE916892046FCF7FAFE4FF0FF310AF1A7
:104B02003800FBF782FDDAE91A01BDE8F48F0000F4
:104B12000460DFF890C3BCF8000000237047DCB5E6
:104B2200DDE906670446CDE90067180008BFDFF833
:104B320094332046FFF76DFE010003D500204FF0AD
:104B42000041DCBD204602B0BDE8D04002224FF059
:104B5200E0436AE700002434002001000706010157
:104B62000E042846BDE87640FBF757BDDFF8340354
:104B720001680A78100770470000144400200400FE
:104B82000020FFE72DE9F8438946DFF81013096892
:104B92001446CA061BD5DFF820231268D30605D4B3
:104BA200DFF800331D682E78F30610D509070ED5FD
:104BB200110705D4DFF8EC120A681378190706D535
:104BC20028B900F0B2F840F2A662FBF71AFDDFF84E
:104BD200DC52686A00908427FBF71BFD19F1010F74
:104BE20004F0010680460AD1A86A002819BFA96A02
:104BF200B1F91C90E88E00F101090020E8750FFA66
:104C020089F0FFF78FF8010077D0A86A814204F09B
:104C1200020424D11CB1686A009000226A62012257
:104C2200C87FB2401043C877FCF75DFE0746002EEE
:104C320014BFDFF89402DFF8940200F060F900F08C
:104C42007FF824B906E000F068F800F074F80098E4
:104C52000028F8D13846FCF74AFE00274FE00098BA
:104C6200884205F1EC0616D13046FEF7B2F9002C67
:104C720012BF0020686A0068686200F061F800985C
:104C820000F04BF800F057F8009828B3002CF6D14A
:104C920022E0126800920098002833D00246106881
:104CA2008842F6D13046FEF794F9009800681CB1AC
:104CB200009A0021116004E00168009A116000224C
:104CC2000260009003E000F028F800F034F8009849
:104CD2000028F8D100F034F8002715E0A87F70B959
:104CE200DFF8F011E96305F14C000221FEF7A9F9A2
:104CF200687E20B94E49E96301E000F021F83846A8
:104D0200BDE8F28300F01CF8687F0028E6D002219B
:104D1200FFF739FCF3E714A00100C17F41F0040161
:104D2200C1776846FEF7D5BF0000DFF8785121A1B0
:104D3200288800237047014605F13000FEF7D5BFF1
:104D42004046FBF76ABC38B500F02BF813D500F0EB
:104D520020F802D400F017F80DD500070BD508078C
:104D620002D4FFF703FF06D52CB9FFF7DEFF40F2AE
:104D72003D72FBF746FC2046BDE838400FF25C115D
:104D8200142200F016B9DFF8182113681D78EA061C
:104D92007047DFF824110968CA0670470000B53F62
:104DA200000004463E480068C10670470000AB3E62
:104DB2000000F13F0000433A5C55736572735C4B2F
:104DC2006566616E5C446F776E6C6F6164735C36AE
:104DD20054695343482D546573746265642D6D6143
:104DE200696E202831295C3654695343482D546535
:104DF20073746265642D6D61696E5C736F75726345
:104E0200655C436F6D706F6E656E74735C68616C28
:104E12005C696E635C52464343323658585F73692D
:104E22006E676C654D6F64652E6300000000114073
:104E320000003C45002000200940389A0100FBF7A1
:104E4200ECFB204670BD00000000B73F00002D3E85
:104E52000000E93D0000CD3F000038B50446FBF7F5
:104E6200D8FB124AD17D4B0702D5937D9C4211D0CB
:104E72000123958A03FA04F10D4395820C341549F6
:104E82000D6803FA04F425EA04040C60096809B900
:104E920000231376BDE83240FBF7BFBB000040059C
:104EA200000044050000840500007B3F0000D83369
:104EB20000200430044000093D003C050000E835B4
:104EC2000020FDEFFF9F7F3F000001000204010070
:104ED2000104714200000C100440FFFFFFFFC409EF
:104EE200000000000000B53F000001001A01214946
:104EF2000868C2430A600A680242FAD170471E4932
:104F02000A68002AFCD1CA610860C8690028FCD07E
:104F12000020C86148687047194801686FF00202B2
:104F2200114041F40071016003211548816041F292
:104F3200300141610121C160502141610121C16003
:104F42004FF4CA6141610121C160016070470D489F
:104F520002680A6082684A60C2688A60406B20F018
:104F6200784040F08050C860704770470146102278
:104F7200064800F00EB81010044000100440000073
:104F82000460004104404C13005018000021704797
:104F9200000062B38B0708D0521E11F8013B00F8E3
:104FA200013B00F024808B07F6D1830740F020807C
:104FB20000BF103A07D330B4B1E83810103AA0E875
:104FC2003810F9D230BC530724BFB1E80810A0E86A
:104FD200081044BF51F8043B40F8043BD20724BFF9
:104FE20031F8022B20F8022B44BF0B780370704774
:104FF200121F17D35B0009D151F8043B20F8023B82
:105002001B0C121F20F8023BF6D20BE051F8043BB6
:1050120000F8013B1B0A20F8023B1B0C121F00F890
:10502200013BF3D238BF121D521E24BF11F8013BBF
:1050320000F8013BF8D8704700000022FEF7DFB904
:1050420000004178007800EB012080B2704710B573
:10505200DFF84C4ADFF84C1ADFF84C2A0420E071E2
:1050620000202072A080087010702E21DFF83C2AE8
:10507200107004F10C00FFF7E0FF4FF46071DFF8ED
:105082002C0AFFF7DAFF0020E0635021BDE8104050
:10509200DFF8200AFFF7D1BFDFF8040A007A704771
:1050A200042801DB00207047E021DFF8002A484392
:1050B200104470472DE9F84C04460D4692460026EE
:1050C2004FF6FF7BF1B2E022DFF8E40951434718C3
:1050D200787890B15C4519BF398BA1423879A842E2
:1050E2000BD1032D514607F1280002D101F0B2F88D
:1050F20001E001F0BCF8C0B230B9761CF0B203286E
:10510200E0DD0020BDE8F28CDFF8AC0901783972ED
:105112003846F7E7F8B588B006460D4668460021DE
:1051220000220023002480E81E003DB36A46E9B253
:10513200304601F09CFB002820D006442D1A9DF831
:105142000100039FBDF802400128ADB2EDD1002C51
:10515200EBD06A46E1B2384601F09EFB0028E4D06B
:105162000744241A9DF806001A28A4B2EFD1039826
:1051720004A901F059FA9DF8180000E0FF2009B0D7
:10518200F0BD10B50C460121617001892183817A3D
:1051920021710329014604F1280002D101F03FF8F0
:1051A20001E001F043F800206071A071E060DFF8D7
:1051B20004090178217210BD2DE9FC41044608461C
:1051C2001D461146FFF7A6FF01460023E022DFF845
:1051D200DC88DEB2564308EB0607787830B35B1CF6
:1051E200D8B20328F5DDF5B900232046DCB25443DA
:1051F20044442578012D26D0E578A9422ADB03D143
:10520200257C077BBD4225D3E578A94202BF057BF9
:10521200277CBD4203D1657CC77ABD421AD35B1C91
:10522200DCB2032CE2DD0020BDE8F68139462046DF
:10523200FFF7A7FF08F80650DFF86408017A491C57
:1052420001723846F0E72146FFF79BFF00202070ED
:105252002046E9E72146FFF794FFF9E72DE9F841F7
:1052620080460F4642462E20DFF83418424385B06E
:1052720000268C18FCF73FFB054604F10C00B1B286
:10528200405CE0B10E20ADF800008DF80480ADF86E
:105292000A606A4601A9692001F0B8FD002802BF30
:1052A200BDF80C00B988884209D19DF80700397B06
:1052B200884202BF9DF80800797B88420AD02846BE
:1052C200FCF71DFB761CB0B22E28D3DB002006B003
:1052D200BDE8F0812846FCF712FB7E800120F6E74C
:1052E20038B504460D46FCF706FB2E21DFF8B02741
:1052F2004C4311194A19117B09B100231373BDE8FC
:105302003240FCF7FCBA2DE9FC4105460C46FFF79A
:10531200A5FF08B1002015E02E204543DFF8808765
:1053220008F10C0000264719FCF7E5FAB2B2B95CA5
:1053320051B1FCF7E4FA761CB0B22E28F4DB2E2031
:1053420060800220BDE8F68108EB05031A446680FE
:1053520001211173FCF7D3FA0120F3E72DE9FE4F87
:1053620082460024DFF8E48CDFF834970E2639E019
:105372000298E9B27143084400F15207394678783D
:10538200FFF7C1FF012823D1384601F0DCFC387A4F
:10539200410710D509F10501019811F804B05B46E7
:1053A20073430E2239461844FFF7F3FD09F1050055
:1053B2000BF101010155387A010709D57889B8F84E
:1053C2000410ADF80000ADF80210684601F006FDC9
:1053D2006D1C0AEB0401E8B291F833108842C7D37E
:1053E200641CE4B29AF83200844209DA8C206043E9
:1053F200DFF85C1C01445044002501910290E8E76B
:10540200BDE8F78FDFF89816CA6B6AB1824203D102
:10541200C268CA6306E00A46D16829B18142FAD15C
:10542200C168D1600021C1607047000000002DE911
:10543200F84F0446DFF868566279032A6AD8DFE833
:1054420002F002151B680129617163D10020E0712D
:10545200E060E96B11B9EC6304E00146C86800281A
:10546200FBD1CC602046BDE8F24F77E7002961719D
:1054720050D1BDE8F24FC5E7032961710BD1DFF8C6
:10548200C80BC17F41F00101C1772046FFF7BAFF87
:105492000020E0713EE0012908BFE1713AD0002905
:1054A20038D1FFF7AFFF002627E00E2148434044E2
:1054B20000F1520A51469AF801B05846FFF7CEFE63
:1054C20098B1FCF718FA2E2205F10C0102FB0BF23F
:1054D2001144BAF8022000238B54FCF710FA022080
:1054E2008AF80000504601F02EFC7F1C99F8331018
:1054F200F8B28842D9D3761CF6B294F832008642CA
:1055020008DA8C207043002704EB000804EB06093C
:10551200ECE76171BDE8F18F2DE9FC47DFF82C6BF8
:10552200DFF88C55317F0023002701EB41014FF05A
:10553200E00808FB07F2681C805C012802BFAC1877
:10554200207800280AD1A47C481001EB9070B4EBBB
:10555200A00FBDBF0024681C84545B1C7F1C032F5A
:10556200E7DDDBB25BB1002000236F1C08FB00F11A
:105572006A5C012A08BF7B54401C0328F6DDFF2722
:105582004FF0000908FB09F02C186078E0B1E078D0
:10559200B842B8BF07466078B0B10622DFF86C1C8B
:1055A20002FB09F2114401F5E67A04F12800FFF743
:1055B20048FDAAF80400E0788AF80000207C8AF806
:1055C2000100607C8AF8020009F10109B9F1030FB8
:1055D200D8DDFF2F08BF002050D000239C460021B9
:1055E200002208FB02F005EB000E00208EF80200FC
:1055F2009EF8010098B19EF80340BC420FD19EF87C
:105602001000834203D29EF811C0034606E098427E
:1056120005D19EF81100844501D284461146521CE0
:10562200032ADEDDDFF87874F971AA1CF87908FB29
:1056320000F001211154B17CFF290BD02844002134
:10564200007ACAB23244D27C904219D0491CCAB202
:10565200032AF6DB002608FB06F2681C815C31B1E6
:10566200A81C805C18B90021A81800F033F8761C39
:10567200032EF0DDF87908FB00F16818BDE8F68723
:10568200DFF88C0B0170E5E7DFF81404C179042917
:1056920081B008BF002004D0E020DFF8102441438D
:1056A200501801B07047DFF8680BC0797047E021ED
:1056B200DFF8FC2348430244D2E908017047E021A5
:1056C200DFF8EC234843104440697047DFF8440B8D
:1056D200C06B704720B14278002A18BFFFF7A7BEFF
:1056E20070472DE9F041D0B0FFF7CEFF050008BFAB
:1056F20080204ED0288BDFF81C1B088005F1180192
:10570200502001F07EFCE878401C01218DF8020057
:1057120000F098F80DF10201922001F091FB0100D6
:105722000ED1DFF824190A894FF47A70424304211A
:10573200019200F087F801A95A2001F081FB0100D3
:105742007DD102AAD5E9080103041B0E53708DF81E
:105752000800030C93701171030E0520ADF80000D0
:10576200D3706A4602A9912001F06AFB010066D15A
:1057720005F13006307801280CD11A2100F062F8C8
:1057820004A9702001F042FB9DF810103279914279
:105792002FD054E030798DF810006A46F188ADF8C8
:1057A20012101A213089ADF814007089ADF8160074
:1057B200B089ADF81800F089ADF81A00308AADF85A
:1057C2001C00708AADF81E00B08AADF82000F08A85
:1057D200ADF82200308BADF82400708BADF82600B6
:1057E200B08BADF82800ADF80010702004A901F0CC
:1057F20027FB70788DF82C004FF48A7100F022F8A4
:105802000BA9902001F002FB010018D1DFF8048AF5
:10581200B17888F8041000270EE005EB870000F14C
:105822004E0400212170204601F067FA08EB87013F
:1058320022680A607F1CFFB2B1788F42EDDB50B064
:10584200BDE8F081ADF800106A4670472DE9F14FCE
:10585200934C9CB000F10A0A20798DF82800884602
:10586200A8F10A064FF0080B4FF00109002549E0A4
:1058720006210CF1040001FB0EF108440E2101FB8C
:105882000EF119448F880780CF8847800F7A0771FD
:1058920005AF087B07F80E0005A8497B70440EF19E
:1058A200010E81729645E3DB601C012110F8250090
:1058B2008CF80000A01C30F825008CF80120ACF810
:1058C20002008DF804108DF8051002EB8200002111
:1058D200ADF806108DF80910484443218DF80A10DE
:1058E20000F10409500005A90022ADF80C00049152
:1058F2008DF80820514600F0E6F86D1C8244361AF5
:105902008344EDB29DF82800854211DA142105A8DE
:10591200FFF793FB601D8C21425D0DF12A0000EB25
:10592200851CDFF8280769434FF0000E4318B9E7DA
:1059320000F0C3F800210020ADF806008DF8091030
:105942001B208DF80A008DF808105FFA89F0ADF877
:105952000C00F2B20AA80490514600F0B5F8824455
:10596200361A83441A20ADF800006A4605A9702051
:1059720001F04CFA9DF814008DF830000121BDF8B9
:105982001600ADF832008DF804108DF805100021D4
:10599200BDF81800ADF83400ADF806108DF8091006
:1059A2001C21BDF81A00ADF836008DF80A100CA9BA
:1059B200BDF81C00ADF838000491F2B2BDF81E002B
:1059C200ADF83A005146BDF82000ADF83C00BDF8F4
:1059D2002200ADF83E00BDF82400ADF84000BDF84D
:1059E2002600ADF84200BDF82800ADF84400BDF82D
:1059F2002A00ADF84600BDF82C00ADF848000120A1
:105A0200ADF80C0000208DF8080000F05DF80122CE
:105A12008DF8042000218DF802100022ADF8062036
:105A220001218DF805108DF809100922ADF80C102E
:105A32008DF80A2000210DF102028DF8081004925F
:105A4200361A83440AEB000100F03DF804460020B8
:105A5200CDE9060000F03BF800F02FF8A3445FFA0E
:105A62008BF0ADF806001A2100208DF809008DF8A0
:105A72000A100620ADF80C0006A9049101208DF849
:105A8200080042461C9900F01FF8A8EB0608A04443
:105A92005FFA88F01DB0BDE8F08F00000000D80B5F
:105AA2000020FD020011FE020011FF02001160221F
:105AB2000020444100206045002001208DF80400B0
:105AC2008DF805007047F2B201A800F00ABC6A46E0
:105AD20008A9922001F09AB92DE9F04FA5B08346AA
